:020000040800F2
:10800000D8620120AD81000809A50008A1810008FF
:1080100025A40008598C0008C9E9000800000000E8
:108020000000000000000000000000005FC4000825
:10803000699B000800000000BDA500084DC50008B0
:10804000C7810008C7810008C7810008C7810008F0
:10805000C7810008C7810008C7810008C7810008E0
:10806000C7810008C7810008C7810008C7810008D0
:10807000C7810008C7810008C7810008C7810008C0
:10808000C7810008C7810008C7810008C7810008B0
:10809000C7810008C7810008C7810008C7810008A0
:1080A000C7810008C7810008C7810008C781000890
:1080B000C781000855C60008C7810008C7810008AD
:1080C000C7810008C7810008C7810008C781000870
:1080D000C7810008B5C70008C5C70008C7810008E8
:1080E000C7810008C7810008C7810008C781000850
:1080F000C7810008C7810008C7810008C781000840
:10810000C7810008B5B20008C7810008C781000810
:10811000C7810008C7810008C7810008C78100081F
:10812000C7810008C7810008C781000815990008A9
:10813000C7810008C7810008C7810008C7810008FF
:10814000C7810008C7810008C7810008ADA50008E5
:10815000C7810008C7810008C7810008C7810008DF
:10816000C7810008C7810008C7810008C7810008CF
:10817000C7810008C7810008C7810008C7810008BF
:10818000C7810008C7810008DFF810D000F018FB95
:108190000048004751440108AFF30080D862012035
:1081A000704669460BF0D2FEFFF7FEFF0648804797
:1081B00006480047FEE7FEE7FEE7FEE7FEE7FEE7CC
:1081C000FEE7FEE7FEE7FEE7EDC50008898100084F
:1081D0002DE9F05F0546002092469B4688460646FC
:1081E000814640241BE0284641464746224600F08F
:1081F000CBF853465A46C01A914110D3114618463F
:10820000224600F0B2F82D1A67EB01084F462246CD
:108210000120002100F0A9F817EB00094E41201EB3
:10822000A4F10104DFDC484631462A464346BDE856
:10823000F09F40EA01039B0703D009E008C9121F21
:1082400008C0042AFAD203E011F8013B00F8013B10
:10825000521EF9D27047D2B201E000F8012B491E3C
:10826000FBD270470022F6E710B513460A460446D3
:108270001946FFF7F0FF204610BD10B5044604E094
:108280000B7800F8013B03B1491C521EF8D220467E
:1082900010BD421C10F8011B0029FBD1801A704749
:1082A00030B504460020034600E05B1C934203D235
:1082B000E05CCD5C401BF8D030BD034611F8012BCB
:1082C00000F8012B002AF9D1184670472DE9F05F1C
:1082D00093460F4680460446002606F0C7FBD0F8BA
:1082E0000090824614F8015B2DB100F05DF8006843
:1082F000405DC007F6D12B2D02D02D2D1AD0641E63
:108300000021CAF800105A463946204600F050F8BD
:10831000014627B13868A04201D1C7F80080DAF8D9
:108320000000022809D0CAF80090700505D548421F
:10833000BDE8F09F46F48066E2E70846F8E730B50E
:108340000B46014600202022012409E021FA02F513
:108350009D4205D303FA02F5491B04FA02F52844AD
:10836000151EA2F10102F1DC30BD202A04DB203A07
:1083700000FA02F1002070479140C2F1200320FA78
:1083800003F3194390407047202A04DB203A21FA76
:1083900002F00021704721FA02F3D040C2F120021E
:1083A000914008431946704700487047603B0408F5
:1083B0002DE9F05F82460078002715468B460AF1CA
:1083C0000104B946302801D09DB113E014F8010B27
:1083D0000127782803D0582801D045B10AE00DB113
:1083E000102D07D10027102514F8010B02E00825F5
:1083F00000E00A250026B0460EE005FB080005FB5C
:1084000006F1012701EB10461FFA80F8B6F5803F10
:1084100000D3B94614F8010B294600F0F5F90028FD
:10842000EBDABBF1000F05D00FB1641E00E054463B
:10843000CBF80040B9F1000F06D006F017FB02217F
:108440000160C81EBDE8F09F48EA0640FAE72DE942
:10845000FE4F804681EA0300C00F0C46009021F0D9
:10846000004123F00045B8EB0200A94105D2404687
:10847000214690461C460B46024623F0004010431E
:1084800047D0270DC7F30A00C3F30A510290401AE0
:10849000019040286BDAC3F3130040F4801B00986E
:1084A000924620B10023D2EB030A63EB0B0B019839
:1084B0005946C0F140025046FFF757FF06460D46A9
:1084C00050465946019A00F08DF910EB08006141C1
:1084D000002487EA115284EAE7731A4340D0009AD5
:1084E00062B3019A012A4FEA075215DC001B61EBC7
:1084F00002014FF0004202EA0752CDE90042001C9F
:1085000041F5801132462B4600F09BF903B0BDE8DF
:10851000F08F40462146F9E7001B61EB0201001C89
:1085200041F5801300185B412018A2F5001747EBB6
:10853000030140EAD570B6196D4111E06D084FEAAC
:10854000360645EAC0754FEA0752001B61EB02018F
:10855000001C41F5801149084FEA300000195141D3
:1085600032462B4603B0BDE8F04F00F05BB90098EF
:10857000012240000023D0EB020263EBE07300987D
:1085800021464FEAE074B8EB000061EB0401E9E733
:1085900083F000435BE781F0004158E72DE9FE4F8F
:1085A00081EA030404F0004421F0004100944FF0FC
:1085B000000B23F0004350EA01045ED052EA0304AA
:1085C0005BD0C3F30A54C1F30A552C44A4F2F3342C
:1085D0000194A0FB0254C1F3130141F48011C3F3D1
:1085E000130343F4801301FB024400FB034E840A8F
:1085F000970A44EA815447EA8357A4FB0768029527
:108600008D0A05FB07854FEA932C04FB0C542705C4
:10861000029D4FEA065847EA1637B5EB08056EEBA0
:10862000070C870E920E47EA811742EA8312A7FBD6
:108630000201B6EB0B0164EB00042B0D43EA0C3393
:108640005E1844EB1C50DA465146E7FB0201C5F3C5
:1086500013044FEA0B3343EA14534FEA0432019CEC
:1086600043EA0603A4F10C040294009CCDE900B493
:1086700000F0E7F803B0BDE8F08F00200146F9E70D
:108680002DE9F04D81EA030404F0004B21F0004590
:1086900014464FF0000A23F0004150EA050220D0B2
:1086A00054EA01021DD0C5F30A570246C5F313036D
:1086B000C1F31300C1F30A5640F4801543F480134C
:1086C000A7EB0608101BD64608F2FD3873EB050031
:1086D00002D308F1010801E092185B41B8F1000FE4
:1086E00003DA00200146BDE8F08D00204FF4801130
:1086F000064684460EE0171B73EB050705D3121BD5
:1087000063EB050306434CEA010C49084FEA3000CD
:1087100092185B4150EA0107EDD152EA030012D0F2
:1087200082EA040083EA0501084305D0101BAB412F
:1087300006D20122002306E000224FF0004302E0AF
:108740006FF0010253101AEB06004CEB085110EBCE
:108750000A0041EB0B01BDE8F04D00F063B8C1F336
:108760000A52C1F3130140F2FF3341F480119A42DF
:1087700002DA00200146704740F233439A42A2F2E7
:10878000334202DC5242FFF7FFBDFFF7EEBD0000AF
:1087900030B5041E71F1000404DB4FF00044404288
:1087A00064EB0101141E73F1000405DB1C464FF05D
:1087B0000043524263EB0403994208BF904230BD2C
:1087C000064C074D06E0E06840F0010394E807001E
:1087D00098471034AC42F6D3FFF7DAFC344D040866
:1087E000544D0408202A06DBCB17203A41FA02F048
:1087F00043EAE07306E041FA02F3D040C2F12002FE
:1088000091400843194670473A2800D2303820F08A
:108810002002412A01D3A2F13700884201D34FF050
:10882000FF30704710B5141E73F1000408DA401CC5
:1088300041F1000192185B411A4301D120F001007F
:1088400010BD2DE9F04D92469B4611B1B1FA81F26F
:1088500002E0B0FA80F220329046FFF786FD04462F
:108860000F4640EA0A0041EA0B0153465A460843C4
:1088700013D0114653EA010019D0C8F14002504606
:10888000FFF782FD05460E46504659464246FFF721
:108890006CFD084305D0012004E020463946BDE8C0
:1088A000F08D0020054346EAE0762C4337430A98D2
:1088B0006305E40AA0EB08000022FD0A44EA4754DD
:1088C0000A3002D500200146E9E701051019694187
:1088D000DDE9084500196941BDE8F04DA2E770B532
:1088E0008C1810F8015B15F0070301D110F8013B5B
:1088F0002A1106D110F8012B03E010F8016B01F8E2
:10890000016B5B1EF9D12B0705D40023521E0DD439
:1089100001F8013BFAE710F8013BCB1A921C03E087
:1089200013F8015B01F8015B521EF9D5A142D8D3BF
:10893000002070BD21B1826842F00102826003E034
:10894000826822F001028260704700000021084A1C
:108950001168084A1140D0E900231A4383681A437A
:10896000C3681A431143044AC2F804137047000055
:1089700004230140E030FCFF0020014021B1826867
:1089800042F48072826003E0826822F48072826026
:10899000704721B1826842F40072826003E082680D
:1089A00022F400728260704730B502460020002336
:1089B0005068104C20400D790C6844EA052420438F
:1089C000506090680C4C2040D1E903542C438D68D2
:1089D0002C434D7944EA450420439060D06A20F44A
:1089E00070000C7D641EE4B2234340EA0350D06261
:1089F00030BD0000FFFEFFFCFDF7FFC0F0B50446F0
:108A00000D4600200021092D11DDE068A5F10A06C0
:108A100006EB4607072606FA07F18843A5F10A0682
:108A200006EB460603FA06F10843E0600CE0206915
:108A300005EB4507072606FA07F1884305EB4506CF
:108A400003FA06F108432061072A0FDA606B561E0D
:108A500006EB86071F2606FA07F18843561E06EB2B
:108A6000860605FA06F10843606322E00D2A0FDA54
:108A7000206BD61F06EB86071F2606FA07F18843F0
:108A8000D61F06EB860605FA06F10843206310E0C0
:108A9000E06AA2F10D0606EB86071F2606FA07F12B
:108AA0008843A2F10D0606EB860605FA06F1084397
:108AB000E062F0BD816841F0804181607047000054
:108AC00038B10849096841F40001074AC2F80413A3
:108AD00006E00449096821F40001034AC2F80413BE
:108AE00070470000042301400020014038B10849CC
:108AF000096841F48001074AC2F8041306E00449FA
:108B0000096821F48001034AC2F804137047000089
:108B100004230140002001401CB50121082001F080
:108B200009FE4FF400600C49088001208DF8040014
:108B300000208DF806008DF8070002208DF8050052
:108B400080020090694604481A3801F01DF900209F
:108B5000024908731CBD00001A0C024030CA0020F4
:108B600000B501221146052000F05AF800BD0000B2
:108B70002948007830B12848808818B12648007B01
:108B8000012800D1704724484078B0B92248808835
:108B900000283FDD20480089401C80B21E49088122
:108BA0004988884236DB4FF400601C490880002069
:108BB00019490881012048702CE0174840780128A5
:108BC00028D115480089401C80B213490881898842
:108BD00088421FDB1048C088002812DD0E484089FB
:108BE000401C80B20C494881C988884202DB0020C1
:108BF000094908700848007818B90020064988809B
:108C0000C0E700200449088148704FF40060034920
:108C1000891E088000BFB5E730CA00201A0C024048
:108C200010B518B10A4B1B7B012B00D110BD084BAE
:108C300058809980DA800023054C2381638163701A
:108C400001232370DB02034C238000BFEEE700000A
:108C500030CA0020180C024000BFFEE770B50025A6
:108C60004FF4803400E0641E24B1802002F0F6FA54
:108C70000028F8D014B90325284670BD40F2FF50F3
:108C800002F0A8FA2846F8E72DE9F0410646002749
:108C90004848056801E04748056805F04500002898
:108CA000F9D005F0040030B10327042002F092FA55
:108CB0003846BDE8F08105F0010028B10127012008
:108CC00002F088FA3846F4E702F0C2FAB04202D065
:108CD00010273846EDE740F2FF5002F07BFA002003
:108CE00002F0DCFA04463448204008B93846E0E790
:108CF00004F0004008B11C20DBE704F0804008B11C
:108D00000920D6E704F0005008B10A20D1E704F0AA
:108D1000805008B10B20CCE704F0006008B10C20B3
:108D2000C7E704F0806008B10D20C2E704F080704E
:108D300008B10E20BDE704F4000008B10F20B8E729
:108D400004F4800008B11020B3E704F4001008B167
:108D50001120AEE704F4801008B11220A9E704F452
:108D6000002008B11320A4E704F4802008B11420E7
:108D70009FE704F4003008B115209AE704F480302E
:108D800008B1162095E704F4004008B1172090E7D9
:108D900004F4804008B118208BE704F4005008B1B7
:108DA000192086E704F0080008B11A2081E7384648
:108DB0007FE70000342C014008E0FFFD70B500257E
:108DC0001048046801E00F48046804F045000028DA
:108DD000F9D004F0040028B10325042002F0FAF9C8
:108DE000284670BD04F0010028B10125012002F0E1
:108DF000F1F92846F5E740F2FF5002F0EBF928467A
:108E0000EFE70000342C014070B500250B480468E2
:108E100001E00A48046804F045000028F9D004F095
:108E2000040028B10325042002F0D4F9284670BDBF
:108E300040F2FF5002F0CEF92846F8E7342C01400A
:108E40002DE9F04106460F464FF00008224805681C
:108E500001E02148056805F045000028F9D005F03B
:108E6000040038B14FF00308042002F0B3F9404683
:108E7000BDE8F08105F0010030B14FF0010801209C
:108E800002F0A8F94046F3E702F0E2F9B04203D05D
:108E90004FF010084046EBE740F2FF5002F09AF91D
:108EA000002002F0FBF9044604F4604018B9200CDD
:108EB00038804046DCE704F4005008B11320D7E7BF
:108EC00004F4804008B11020D2E704F4004008B157
:108ED0000F20CDE74046CBE7342C014070B500268B
:108EE0004FF480350F48046802E06D1E0D48046899
:108EF00004F0450008B9002DF7D115B104F00400C5
:108F000028B10326042002F065F9304670BD04F054
:108F1000400028B10026402002F05CF93046F5E719
:108F20003046F3E7342C0140014609B90B4870473D
:108F3000012901D10A48FAE7022901D10020F6E708
:108F4000032901D10020F2E7042901D10020EEE736
:108F5000052901D10020EAE70020E8E7F894002085
:108F600020A9002008B54FF4407001F00BFB25202C
:108F70008DF8000002208DF8010000208DF802001D
:108F800001208DF80300684601F0C0FA26208DF814
:108F9000000000208DF8010001208DF802008DF8FE
:108FA0000300684601F0B2FA08BD70B506460C46EB
:108FB00004F08000802808D104F07F0000EB8001DD
:108FC00006F58E7000EBC10507E004F07F0000EBB2
:108FD000800106F55D7000EBC10504F07F0028708C
:108FE00004F08000C00968702946304605F084F816
:108FF000002070BD70B506460C4604F08000802845
:1090000008D104F07F0000EB800106F58E7000EBC4
:10901000C10505E004EB840106F55D7000EBC105B8
:109020000020A87004F07F002870C4F3C01068709E
:109030002946304605F038F8002070BD70B5054669
:109040000C4604F08000802805D104F07F012846FA
:1090500005F04CFA02E0284605F022FA002070BD27
:109060002DE9F04106460D4690461F4605F080006A
:10907000802808D105F07F0000EB800106F58E7096
:1090800000EBC10407E005F07F0000EB800106F56E
:109090005D7000EBC10405F07F00207005F08000DA
:1090A000C0096070C4F80880E770607808B1207863
:1090B000E080022F01D1002020712146304604F0CB
:1090C000A7FF0020BDE8F0812DE9F04105460E46DE
:1090D0001746984606F07F0000EB800105F55D70AD
:1090E00000EBC104E760C4F814800020A061607048
:1090F00006F07F002070E878012800D127612078F1
:1091000020B92146284604F0A7FE03E02146284660
:1091100005F053F80020BDE8F08108B50022009268
:10912000009A61F30A12009202691268009B1A43C6
:1091300003691A6008BD70B506460C4604F080004D
:10914000802808D104F07F0000EB800106F58E70C6
:1091500000EBC10505E004EB840106F55D7000EB52
:10916000C1050120A87004F07F002870C4F3C0106E
:1091700068702946304604F0EEFF002070BD2DE9EE
:10918000F04107460D461646984605F07F0000EB75
:10919000800107F58E7000EBC1040120607005F0BE
:1091A0007F002070E66026610020A061C4F8148072
:1091B000207820B92146384604F04EFE03E02146CF
:1091C000384604F0FAFF0020BDE8F0811CB50446E3
:1091D000204604F00CFEE068C0680090204605F0D0
:1091E000AFF903280BD10020A0704FF40070A080CD
:1091F000009820F4705000F51050009009E0012014
:10920000A0704020A080009820F4705000F5A0507D
:1092100000900098E168C86000200190019820F457
:10922000005000F5005001900198E168486101206C
:109230001CBD0000F8B5054600240020009028461B
:1092400005F0BDF9064690E006F0010000287DD04B
:10925000E1B2284600F002FB0090009800F0010007
:1092600030B3012000FA04F72869406BB84329693C
:10927000486300200090009820F00100401C0090FE
:1092800005F1180050F8240000998160E1B23948D6
:109290000068426828469047E878012808D13CB920
:1092A00040F21110405D042802D1284604F07FFEF0
:1092B0000098C0F3C00060B100200090009820F03A
:1092C00008000830009005F1180050F824000099BB
:1092D00081600098C0F3001060B1002000900098F9
:1092E00020F010001030009005F1180050F8240014
:1092F000009981600098C0F3801060B10020009058
:10930000009820F040004030009005F1180050F81F
:109310002400009981600098C0F3400060B10020F3
:109320000090009820F00200801C009005F11800C9
:1093300050F82400009981600098C0F3C01028B153
:109340002146284600F09EFA002000E00BE0009045
:10935000009820F080008030009005F1180050F84F
:10936000240000998160641C7608002E7FF46CAFA5
:109370000120F8BDF00500207CB504460025002042
:109380000190204605F023F906466FE006F0010043
:10939000002869D0E9B2204605F021F90190019832
:1093A00000F00100C8B300200190019820F00100F6
:1093B000401C019004F1540050F82500019981608F
:1093C000E078012817D104F1540050F82500006915
:1093D000009005EB850104F55D7000EBC10080682D
:1093E0000099C1F31201411A05EB850204F55D7085
:1093F00000EBC2008161E9B21E48006802682046A5
:109400009047E078012808D13DB940F21110005D85
:10941000052802D1204604F0CAFD0198C0F340009F
:1094200060B100200190019820F00200801C0190A2
:1094300004F1540050F82500019981600198C0F3AF
:10944000C00088B10B48006881682046884700202A
:109450000190019820F008000830019004F15400B8
:1094600050F82500019981606D1C7608002E8DD181
:1094700001207CBDF00500203EB50446A07A70B105
:10948000D4F80C010090009820F0020000900098A1
:1094900020F0010000900099D4F80C010160002038
:1094A0000190019820F00100401C01902069406863
:1094B000019988432169486008480068816920460D
:1094C000884700200290029820F0004000F1004000
:1094D00002900298E168486101203EBDF00500203D
:1094E0007CB5044600200190019820F01000103057
:1094F0000190E068806901998843E1688861E068CB
:10950000006A0090009800F00F0000EB800104F565
:109510005D7000EBC1050098C0F3434007282DD2D1
:10952000DFE800F02C04051D1E2C1F0027E000982A
:10953000C0F30A1090B10098C0F30A122046E968FF
:1095400005F057F8E8680099C1F30A110844E8608B
:10955000A8690099C1F30A110844A8610FE00EE060
:109560000DE0082204F2CC51204605F042F8A8692B
:109570000099C1F30A110844A86100E000BF00BFD0
:10958000E068806901990843E168886101207CBD39
:1095900038B5044608480068C1682046884700205E
:1095A0000090009820F00800083000900098E168D2
:1095B0004861012038BD0000F00500201FB50446B9
:1095C000002000904FF48970005D009023480068EF
:1095D00041692046884720698068019000200390F7
:1095E000039820F4006000F5006003900398E168A0
:1095F0004861A07A70B3019800F0010050B340F2C6
:109600001510005D012825D19DF80000032821D107
:1096100000200290029820F00100401C0290D4F833
:109620000C01006802990843D4F80C1108600298F4
:1096300020F00200801C0290D4F80C01006802990E
:109640000843D4F80C1108600548006840F0060093
:1096500003490860012004B010BD0000F00500209F
:1096600010ED00E030B587B004460020029006906F
:109670000590049003900190029820F00100401C96
:10968000029020694068029988432169486000215E
:10969000204604F02BFF00250BE0FF2104F1180009
:1096A00050F82500816004F1540050F825008160D5
:1096B0006D1C6078A842F0D84FF0FF3120698161BD
:1096C00006986FF30F00401C0690069880B200F5D4
:1096D0008030069006992069C161059820F0080045
:1096E00008300590059820F00100401C0590059871
:1096F00020F00200801C05900599206941610498C2
:1097000020F00100401C0490049820F0080008306C
:109710000490049820F00200801C049004992069B1
:109720000161206900680390039820F4FE600390B3
:10973000039920690160204604F039FC0020019063
:10974000019820F4805000F5805001900198E16864
:10975000486104480068016920468847012007B035
:1097600030BD0000F00500202DE9F04106460F460F
:109770003946304604F052FF01214FF4897081557B
:109780000021801C8155002511E005EB850106F5BF
:109790008E7000EBC104012060702570E580002010
:1097A000E0704020A0600020E06060616D1C707877
:1097B000A842EAD8002510E005EB850106F55D70AA
:1097C00000EBC104002060702570E580E07040204F
:1097D000A0600020E06060616D1C7078A842EBD84A
:1097E000304604F0F3FA304604F020F90021304608
:1097F00004F07CFF304604F0ACF9304604F03FFE44
:10980000BDE8F08138B504460020009007480068A4
:10981000C16920468847009820F4801000F5801028
:1098200000900098E1684861012038BDF0050020F3
:1098300038B504460020009007480068016A2046B9
:109840008847009820F4001000F500100090009860
:10985000E1684861012038BDF005002030B50246BE
:1098600015692B6915696C6B24FA01F505F0010582
:1098700043EAC51302F1180555F82150AD6805EA11
:10988000030030BD2DE9F84307460E4600250020B1
:10989000009006EB860107F58E7000EBC104D4E959
:1098A0000501451AA068A84200D2A568E81C4FEA45
:1098B000900807F1180050F82600806900901BE01E
:1098C000D4E90501451AA068A84200D2A568E81CA1
:1098D0004FEA9008ABB2F2B23846E16804F02DFFCF
:1098E000E0682844E060A0692844A06107F11800FE
:1098F00050F8260080690090009880B2404506D953
:10990000D4E90510884202D260690028D8D101202C
:10991000BDE8F88310B502F0DFF910BD0246094B2F
:109920009A4201D2084801E00648103801F000537D
:109930001BB1064B0B40C36002E0044B0B4083603D
:109940007047000010640240006002407D0F7D0FF0
:1099500021B1026842F00102026003E0026822F0D5
:109960000102026070470000016821F001010160FE
:109970000021016041608160C1600161212141617C
:109980004A49884204D13D21484A103A91608CE00E
:1099900046491831884205D14FF47461434A103A60
:1099A000916082E041493031884205D14FF4741111
:1099B0003E4A103A916078E03C494831884205D1EE
:1099C0004FF07461394A103A91606EE03749603166
:1099D000884204D13649354A103AD16065E03349AE
:1099E0007831884204D13349304A103AD1605CE082
:1099F0002E499031884204D12F492C4A103AD16027
:109A000053E02A49A831884205D14FF03D51274AF9
:109A1000103AD16049E02949884204D13D21274AC2
:109A2000083A116041E025491831884205D14FF4C8
:109A30007461224A083A116037E020493031884287
:109A400005D14FF474111D4A083A11602DE01B49ED
:109A50004831884205D14FF07461184A083A1160C4
:109A600023E016496031884204D11149134A121F7C
:109A700011601AE011497831884204D10D490F4A2A
:109A8000121F116011E00D499031884204D10A493A
:109A90000A4A121F116008E00849A831884204D11F
:109AA0004FF03D51054A121F11607047106002408F
:109AB0003D000020400F002000003D2010640240C7
:109AC00021B1026842F02002026003E0026822F045
:109AD00020020260704710B501F080034BB122B143
:109AE000436943F08003436103E0436923F080034B
:109AF000436180290BD02AB1036801F01E0423437F
:109B0000036004E0036801F01E04A343036010BD7A
:109B100010B500220268134B1A40CC680B6823432F
:109B20004C6923438C692343CC6923430C6A234348
:109B30004C6A23438C6A23434C6B23438C6B234333
:109B40001A430260426922F00702D1E90B34234331
:109B50001A4342610B6943604B6883608B68C36042
:109B600010BD00003F801CF07047000010B505A03C
:109B700004F02CFF11A004F029FF17A004F026FF29
:109B800010BD00000D0A2D2D2D2D2D2D2D2D2D2D2F
:109B90002D2D2D2D2D2D2D2D2D2D2D2D2D2D2D2DF5
:109BA0002D2D2D2D2D2D2D2D2D2D2D2D2D2D2D2DE5
:109BB0002D2D2D2D2D2D0D0A00000000E8AFB7E949
:109BC0008089E68BA9E6938DE4BD9CE591BDE4BB5D
:109BD000A43A0D0A00000000456E746572202D2025
:109BE000E8BF9BE8A18C4654E6B58BE8AF950D0A1B
:109BF000000000002DE9FC4107460D460026002428
:109C000000200090019008205B4908601020486007
:109C1000402088600020C8604FF4806008610846DA
:109C200001F098FB1020FFF72FF8044614B12046EE
:109C3000BDE8FC815148008800044F490860372086
:109C40004860402088600020C8604FF48060086150
:109C5000084601F07FFB3720FFF716F804460CB1E9
:109C60002046E5E74FF0FF3045490860082048608E
:109C7000302088600220C86000200861012048610F
:109C8000084601F0BFFA00203B49086033204860D5
:109C9000402088600020C8604FF48060086108465A
:109CA00001F058FB3320FEF7EFFF04460CB12046CD
:109CB000BEE709E04FF4001001F0D0FA20B101F046
:109CC00043FB4DF82600761C2E48006840F22A61BE
:109CD00008400028EED0082001F0C0FA28B1082082
:109CE00001F078FA04242046A2E7022001F0B6FA37
:109CF00028B1022001F06EFA0224204698E72020C5
:109D000001F0ACFA28B1202001F064FA06242046C4
:109D10008EE74FF4007001F0A1FA30B14FF40070FB
:109D200001F058FA0724204682E740F2FF5001F084
:109D300051FA00980006009901F47F4140EA0120A1
:109D4000009901F47F0140EA1120009940EA116076
:109D5000686001980006019901F47F4140EA012002
:109D6000019901F47F0140EA1120019940EA116054
:109D7000286020465CE70000E8C900203805002084
:109D8000FCC90020342C0140F0B50A460021002314
:109D9000002400BF3DE0012505FA01F3156805EA3E
:109DA00003049C4234D105684F000326BE40B543EE
:109DB000056015794E00B540066835430560157994
:109DC000012D02D01579022D16D185684F0003268A
:109DD000BE40B543856055794E00B5408668354331
:109DE0008560456801268E40B54345604568967993
:109DF0008E40B6B235434560C5684F000326BE406D
:109E0000B543C560D5794E00B540C6683543C560D9
:109E1000491C1029BFD3F0BDF0B5002300244D0725
:109E2000ED0E02FA05F3CE1000F1200555F826508C
:109E30004E07F70E0F26BE40B543CF1000F12006A7
:109E400046F82750CE1000F1200555F8265045EA77
:109E50000304CE1000F1200545F82640F0BD02466F
:109E6000002013690B400BB1012000E00020704777
:109E700041837047018370477CB504460E46154602
:109E80004548844204D10121084600F053FC3EE0DD
:109E90004248844204D10121022000F04BFC36E00C
:109EA0003F48844204D10121042000F043FC2EE00D
:109EB0003C48844204D10121082000F03BFC26E00C
:109EC0003948844204D10121102000F033FC1EE007
:109ED0003648844204D10121202000F02BFC16E0FA
:109EE0003348844204D10121402000F023FC0EE0DD
:109EF0003048844204D10121802000F01BFC06E0A0
:109F00002D48844203D10121801500F013FC0096F6
:109F100002208DF80500052D37D2DFE805F003118A
:109F20001A242D0002208DF8040000208DF8060070
:109F30008DF80700012200212046FFF76DFF25E084
:109F400001208DF804008DF8060000208DF8070030
:109F50001CE000208DF8040001208DF80600002090
:109F60008DF8070012E001208DF8040000208DF824
:109F700006008DF8070009E003208DF8040000209A
:109F80008DF806008DF8070000E000BF00BF6946AD
:109F90002046FFF7F9FE7CBD0000024000040240AD
:109FA00000080240000C0240001002400014024071
:109FB00000180240001C02400020024010B500F0D2
:109FC00001F810BD4AF6AA20014908607047000058
:109FD0000030004000B587B0002005900690019049
:109FE0000290039004900121084600F0A3FB012198
:109FF000102000F0CFFB072209214A48FFF70CFF91
:10A0000007220A214748FFF707FF00208DF81A00B2
:10A0100001208DF81B0002208DF818000002059029
:10A0200002208DF8190005A93E48FFF7ADFE022079
:10A030008DF818004002059005A93A48FFF7A4FEE4
:10A040004FF4E13001900020ADF80800ADF80A00AF
:10A05000ADF80C00ADF810000C20ADF80E0001A911
:10A06000314802F029FC012240F225512E4802F02D
:10A07000FDFB01212C4802F0B6FB40212A4802F0EA
:10A08000A9FB0121082000F055FB0121480400F044
:10A0900071FB072205212548FFF7BEFE0722062196
:10A0A0002248FFF7B9FE00208DF81A0001208DF834
:10A0B0001B0002208DF818002020059002208DF84A
:10A0C000190005A91948FFF75FFE02208DF8180056
:10A0D0004020059005A91548FFF756FE1448406832
:10A0E00001900020ADF80800ADF80A00ADF80C00B2
:10A0F000ADF810000C20ADF80E0001A90D4802F0DB
:10A10000DBFB012240F225510A4802F0AFFB01219E
:10A11000084802F068FB4021064802F05BFB07B0EC
:10A1200000BD00000000024000100140000C024091
:10A13000F00400200044004010B504460D48007BA8
:10A1400048B90C48806830B10B48007818B9012133
:10A150002046FEF7F0FF81212046FEF7ECFF06487F
:10A160000078022805D11F23024A01212046FEF76C
:10A17000ABFF10BD90DC00200506002010B50446A2
:10A180002B4840682B494860294880688860012135
:10A19000204602F016FE1F2810D1254800682649E7
:10A1A00088420BD12248407B012807DC2048807B75
:10A1B000012803DB1E48807B10280CDD1C49487BEE
:10A1C0002022052100F068FE02201C49087020466C
:10A1D000FFF7B2FF2AE01648417B00F10F0220464C
:10A1E00000F0DEFB002803DA2046FFF7A5FF1DE0A4
:10A1F00013480078022819D011480078012815D09A
:10A200000F480078032811D00E480088002806DD8A
:10A210000C4802880C49204600F0E0F806E00948A6
:10A22000008818B90021204600F0B8F810BD0000E1
:10A2300090DC0020B0DC002055534243050600208E
:10A24000040600200206002090CC002070B50546D0
:10A250000C460C480078022807D181212846FEF7D9
:10A260006AFF0020074908700BE004F08000802896
:10A2700007D104480078012803D00121284600F0C6
:10A280008DF870BD0506002070B504460D461048D7
:10A290000078022804D0032811D0042814D10DE03E
:10A2A0000C48417B00F10F02204600F079FB0028AA
:10A2B00003DA0121204600F071F806E000BF00211A
:10A2C000204600F06BF800E000BF00BF70BD00004A
:10A2D0000406002090DC002070B504460D460D48B1
:10A2E000007810B1012812D103E02046FFF746FFA5
:10A2F0000EE00948417B00F10F02204600F050FBC0
:10A30000002803DA0121204600F048F800E000BFF1
:10A3100000BF70BD0406002090DC00200021014A2F
:10A32000117070470406002010B5044600200C4947
:10A3300008700C4908700C480068016800208847C4
:10A3400001212046FEF77AFE81212046FEF776FEA7
:10A350001F23064A01212046FEF7B6FE10BD00006D
:10A360000406002005060020E806002090DC0020FE
:10A3700010B5044600200649087001200549087000
:10A380001F23054A01212046FEF79EFE10BD000056
:10A39000040600200506002090DC002070B505466C
:10A3A0000C460A480A490860084604730020094917
:10A3B00008700D23064A81212846FEF7E0FE1F2380
:10A3C000054A01212846FEF77FFE70BD55534253D2
:10A3D000B0DC00200406002090DC002070B50646AA
:10A3E0000D4614460C488068A04202D20A48806894
:10A3F00000E0204684B209488068001B0749886055
:10A400000020087304200649087023462A4681214B
:10A410003046FEF7B4FE70BD90DC0020B0DC0020BA
:10A420000406002000BFFEE701460248016000204C
:10A4300070470000F80600202DE9F0470446164654
:10A440001F46DDE9088914B1B8F1000F03D14FF0C0
:10A45000FF30BDE8F087184D06E02868A04202D121
:10A460002068286003E02D6828680028F5D100BF27
:10A4700012480068804780197941C4E90201C4F894
:10A480001080C4F814900C4D00BF286818B9002043
:10A4900020602C600DE0D4E902302A68D2E9021273
:10A4A000591A904103D2286820602C6001E02D6881
:10A4B000EBE700BF0020CCE7F4060020F806002000
:10A4C00010B50F48046817E00E4800688047D4E9CB
:10A4D0000232C01A914105D20A4800688047A1683B
:10A4E000081A10BD064920680860206918B1204686
:10A4F000D4E9042190472468002CE5D10020F0E73E
:10A50000F4060020F80600207047000070B5002116
:10A5100000230F22C4781CB3174C246804F4E064B1
:10A52000C4F5E064C4F30721C1F10404E3B20A41B5
:10A5300044789C40E1B28478144021430C07210EFA
:10A540000E4C05786155047804F01F050124AC40D9
:10A5500005786D11AD0005F1E025C5F8004109E071
:10A56000047804F01F050124AC40054D06787611EF
:10A5700045F8264070BD00000CED00E000E400E06E
:10A5800080E100E002490143024A11607047000087
:10A590000000FA050CED00E0024A0A400243024BBB
:10A5A0001A60704780FFFF1F08ED00E010B50248F9
:10A5B00002F068FD10BD0000E0DC002070470000E4
:10A5C00001490868496870472805002010B511A0A6
:10A5D00004F0FCF910A004F0F9F91FA121A004F087
:10A5E000F5F926A126A004F0F1F92BA12DA004F085
:10A5F000EDF900230822012130A004F0E7F93FA083
:10A6000004F0E4F93FA004F0E1F903A004F0DEF95E
:10A6100010BD00000A0D00002A2A2A2A2A2A2A2A06
:10A620002A2A2A2A2A2A2A2A2A2A2A2A2A2A2A2A8A
:10A630002A2A2A2A2A2A2A2A2A2A2A2A2A2A2A2A7A
:10A640002A2A2A2A2A2A2A2A2A2A2A2A2A2A2A2A6A
:10A650002A2A2A2A2A0A0D0046345F46545F61706E
:10A66000706C65002A20E9A1B9E79BAEE5908DE703
:10A67000A7B02020203A2025730D0A00312E30008B
:10A680002A20E7A88BE5BA8FE78988E69CAC2020D2
:10A69000203A2025730D0A004665622020322032C0
:10A6A000303234002A20E58F91E5B883E697A5E69D
:10A6B0009C9F2020203A2025730D0A002A20E59B2C
:10A6C000BAE4BBB6E5BA93E78988E69CAC203A20A9
:10A6D0005625642E25642E2564202853544D33328C
:10A6E000463478785F5374645065726970685F446B
:10A6F0007269766572290D0A000000002A200A0D91
:10A70000000000002A20436F707972696768742026
:10A710007777772E7370616365746F7563682E63E6
:10A720006F20E699AEE69E97E88AAFE9A9B00D0AD8
:10A730000000000029B1064A12680243044B1A6067
:10A7400004E0034A12688243014B1A60704700001C
:10A750003038024029B1064A12680243044B1A609D
:10A7600004E0034A12688243014B1A6070470000FC
:10A770003438024029B1064A12680243044B1A6079
:10A7800004E0034A12688243014B1A6070470000DC
:10A790004038024029B1064A12680243044B1A604D
:10A7A00004E0034A12688243014B1A6070470000BC
:10A7B0004438024029B1064A12680243044B1A6029
:10A7C00004E0034A12688243014B1A60704700009C
:10A7D00024380240F0B50021002200240225002682
:10A7E0000223324F3F6807F00C0121B1042905D044
:10A7F000082937D105E02E4F076036E02D4F07605E
:10A8000033E02A4F3F1F3F68C7F38056274F3F1F53
:10A810003F6807F03F036EB1264FB7FBF3F7DFF851
:10A820008CC0ACF1040CDCF800C0CCF3881C07FB36
:10A830000CF40CE01E4FB7FBF3F7DFF870C0ACF17F
:10A84000040CDCF800C0CCF3881C07FB0CF4174F99
:10A850003F1F3F68C7F301477F1C7D00B4FBF5F73E
:10A86000076002E0124F076000BF00BF0F4F3F6854
:10A8700007F0F0010909104F7A5C0768D74047607C
:10A880000A4F3F6807F4E051890A0B4F7A5C47682A
:10A89000D7408760054F3F6807F46041490B064F7A
:10A8A0007A5C4768D740C760F0BD000008380240B6
:10A8B0000024F40000127A009005002070B50646CE
:10A8C0000C461546601907490968884207D92122B4
:10A8D0000521304600F0E0FA4FF0FF3070BD002057
:10A8E000FCE700006006002030B504460A465078B8
:10A8F00000F0010010B10E4B07210CE00D4800687C
:10A90000C06904EBC40500EB85031879411D10797B
:10A91000884200DC11790848018004E0481E81B2B9
:10A92000585C064D68540029F8D1002030BD000065
:10A93000A43A0408E80600200206002090CC00207B
:10A9400010B502460B4608210648018005E0481E66
:10A9500081B20548405C054C60540029F7D10020C5
:10A9600010BD000002060020B33A040890CC00207D
:10A9700010B502460B4608210648018005E0481E36
:10A9800081B20548405C054C60540029F7D1002095
:10A9900010BD000002060020AB3A040890CC002055
:10A9A00070B505460E4614463248056020782328C7
:10A9B0003ED00DDC1A2831D005DCB0B1032819D007
:10A9C00012284ED11BE01B281ED01E2849D120E0A2
:10A9D0002A283CD004DC25282FD0282841D131E07A
:10A9E0002F2839D05A283CD11DE02146304600F0AE
:10A9F00079FA70BD2146304600F002FAF9E72146A7
:10AA00003046FFF771FFF4E72146304600F062FA66
:10AA1000EFE72146304600F05DFAEAE7214630468E
:10AA2000FFF7A6FFE5E721463046FFF789FFE0E79D
:10AA30002146304600F0A0F9DBE72146304600F021
:10AA400055F9D6E72146304600F0D8F8D1E721463F
:10AA5000304600F097FACCE72146304600F06AFA1B
:10AA6000C7E720220521304600F016FA4FF0FF30EC
:10AA7000BFE700006C0600202DE9F04105462448A0
:10AA80000068B0F5805F02D22148006801E04FF411
:10AA9000805004461F480068B4FBF0F086B21E48A0
:10AAA00000681C490968B0FBF1F71C480068334690
:10AAB0003A461B49D0F810C02846E047002808DA7B
:10AAC00011220421284600F0E7F94FF0FF30BDE8DD
:10AAD000F0812346124A812112480068FEF74FFB9D
:10AAE0000D48006820440C49086009480068001BB4
:10AAF000074908600C488068001B0B4988600448BF
:10AB0000006810B90320094908700020DFE7000041
:10AB1000680600205C06002064060020E80600208D
:10AB200090CC00206C060020B0DC00200406002041
:10AB30002DE9F04105462A480068B0F5805F02D251
:10AB40002748006801E04FF480500446254800681B
:10AB5000B4FBF0F086B22448006822490968B0FBD3
:10AB6000F1F72248006833463A462149D0F814C02C
:10AB70002846E047002808DA03220421284600F08E
:10AB80008BF94FF0FF30BDE8F08117480068204492
:10AB90001549086012480068001B114908601548F3
:10ABA0008068001B134988600D48006828B900219F
:10ABB00011480068FFF7F2FB10E009480068B0F5A3
:10ABC000805F02D20648006801E04FF4805083B2F3
:10ABD000074A012108480068FEF776FA0020D2E70C
:10ABE000680600205C06002064060020E8060020BD
:10ABF00090CC0020B0DC00206C06002070B505462B
:10AC00000C463348007800285AD13248007B00F0C7
:10AC10008000802808D02F49487B2022052100F0A1
:10AC20003BF94FF0FF3070BD2B4800688168284623
:10AC3000884738B13A220221284600F02DF94FF01A
:10AC4000FF30F0E7A0780006E17840EA0140217982
:10AC500040EA01206179084320490860207AE179BF
:10AC600040EA01201E4908600846008882B21B485D
:10AC700001682846FFF722FE002802DA4FF0FF3075
:10AC8000D1E7022012490870144800681549096884
:10AC9000484312490860124800681249096848434D
:10ACA0000F4908600B4880680968884208D0094944
:10ACB000487B2022052100F0EFF84FF0FF30B2E78B
:10ACC0004FF48050084908802846FFF7D5FEAAE7D0
:10ACD0000406002090DC0020E80600206406002026
:10ACE000680600205C0600200206002070B50446BD
:10ACF0000D461C4800681C4A1C494368204698477A
:10AD000038B13A220221204600F0C6F84FF0FF3059
:10AD100070BD16480068401E000E154908701348A3
:10AD20000068401E000C487010480088401E000A51
:10AD300088700E480078401EC8700B480068000EEE
:10AD4000087109480068000C487107480088000A2B
:10AD5000887105480078C8710820064908800020DD
:10AD6000D6E70000E80600205C0600206006002010
:10AD700090CC0020020600207CB505460E4600243B
:10AD800004E000201B490855601C84B20C2CF8DB41
:10AD90001948006801AA694643682846984738B1AF
:10ADA0003A220221284600F077F84FF0FF307CBDB0
:10ADB00008201049C8700098401E000E08710098C5
:10ADC000401E000C48710098401E000A88710098CF
:10ADD000401EC871022008720198000C4872019848
:10ADE000000A88720198C8720C200449088000206B
:10ADF000DDE7000090CC0020E806002002060020DD
:10AE000010B50346002204E000201E4CA054501C44
:10AE1000C2B2122AF8DB70201A4C20700C20E071AC
:10AE200019480078194C2478A04221D01848164CB3
:10AE3000247810F83400134CA0701548124C247874
:10AE400000EBC40040790F4C207311480E4C24785D
:10AE500000EBC40000790B4C60730B480078401C79
:10AE6000094C207020460078042801D10020207071
:10AE70001220084C20800879122801DC08792080F3
:10AE8000002010BD90CC002058060020590600205C
:10AE9000C0DC00200206002030B54BB20B4C0C4D3C
:10AEA0002D7804F835301302094D2D7804EBC504D4
:10AEB0006360074B1B785B1C054C237023461B7893
:10AEC000042B01D10023237030BD0000C0DC002022
:10AED0005906002002460020014B188070470000F0
:10AEE0000206002070B504460D460F48806840B148
:10AEF0000D49487B20220521FFF7CEFF4FF0FF30A0
:10AF000070BD0A48006881682046884738B13A22F7
:10AF100002212046FFF7C0FF4FF0FF30F0E700208E
:10AF20000349088000BFEBE790DC0020E806002022
:10AF30000206002070B505460C46607800F002005D
:10AF4000022807D1242205212846FFF7A5FF4FF04C
:10AF5000FF3070BD0848008882B208480168284662
:10AF6000FFF7ACFC002802DA4FF0FF30F1E70020D9
:10AF70000349088000BFECE7680600206406002053
:10AF80000206002070B505460C46434800780028AC
:10AF90007BD14248007B00F08000802808D13F49E7
:10AFA000487B20220521FFF777FF4FF0FF3070BD6F
:10AFB0003B48006881682846884738B13A22022118
:10AFC0002846FFF769FF4FF0FF30F0E7344800688C
:10AFD000C1682846884738B1272202212846FFF752
:10AFE0005BFF4FF0FF30E2E7A0780006E17840EA2F
:10AFF0000140217940EA012061790843294908602C
:10B00000207AE17940EA0120274908600846008853
:10B0100082B2244801682846FFF750FC002802DA73
:10B020004FF0FF30C3E71F480068204909684843D4
:10B030001C4908601C4800681C49096848431A49B3
:10B040000860164880680968884208D01349487B20
:10B0500020220521FFF720FF4FF0FF30A7E7012056
:10B060000D49087010480068B0F5805F03D20E48A3
:10B07000006802E009E04FF4805083B20C4A0121DD
:10B080000C480068FEF720F803E02846FFF750FD63
:10B090008DE700208BE700000406002090DC0020F4
:10B0A000E806002064060020680600205C060020F8
:10B0B00090CC00206C0600207CB5054600240020C2
:10B0C0000090019000F0EAF800F0007010B10E243A
:10B0D00020467CBD3D49098888B26946FEF78AFD55
:10B0E00004460CB12046F4E7012D36D1019800F456
:10B0F000802000282ED0354800880004344908609C
:10B1000037204860402088600020C860A80208619D
:10B11000084600F01FF93720FDF7B6FD04460CB1D4
:10B120002046D6E702202A490860062048604020D1
:10B1300088600020C8604FF480600861084600F015
:10B1400009F90620FDF7A0FD04460CB12046C0E732
:10B150002046BEE725242046BBE7019800F4803056
:10B1600078B31A48008800041949086037204860FD
:10B17000402088600020C8604FF480600861084665
:10B1800000F0E8F83720FDF77FFD04460CB12046BB
:10B190009FE700200E490860062048604020886034
:10B1A0000020C8604FF480600861084600F0D2F8C3
:10B1B0000620FDF769FD04460CB1204689E72046CC
:10B1C00087E7FFE72524204683E7000038050020B5
:10B1D000E8C900200149086070470000382C014090
:10B1E0000149086070470000382C0140014908609F
:10B1F00070470000A08025420149086070470000A8
:10B200008C85254200210B4B02681A601B1D426889
:10B210001A601A1D116821F0F701D0E902231A43C0
:10B2200003691A4343691A431143024A0832116001
:10B2300070470000242C014010B50121C802FFF71F
:10B24000B9FA00214FF40060FFF7B4FA10BD000016
:10B2500001480068C0B27047102C01400146002030
:10B26000034A12680A400AB1012000E0002070473A
:10B27000342C014001460020034A12680A400AB1FA
:10B28000012000E000207047342C01400248006893
:10B2900000F0030070470000002C014008B5014693
:10B2A000002000900248084400900098006808BD03
:10B2B000142C014010B500F023FD10BD29B1064A41
:10B2C00012680243044B1A6004E0034A1268824386
:10B2D000014B1A60704700003C2C014000210A4AD3
:10B2E000116847F6FF629143027D83681A43436801
:10B2F0001A43C3681A4303681A4303691A43114384
:10B30000014A116070470000042C014008B54FF459
:10B31000C060FFF737F931208DF8000000208DF86C
:10B3200001008DF8020001208DF803006846FFF748
:10B33000EDF83B208DF8000001208DF801006846F3
:10B34000FFF7E4F808BD00000148006870470000FE
:10B35000802C01400021094B02681A601A1D1168F7
:10B360006FF30A01D0E901231A43C3681A43036942
:10B370001A431143014A121D11607047082C014005
:10B380000149086070470000002C014008B5012009
:10B39000009080210448FEF762FD08B10020009073
:10B3A0009DF8000008BD00000008024070B504468A
:10B3B000002520480068032802D12725284670BDB3
:10B3C0001C48006838B11B480068012803D01948A0
:10B3D000006802282CD1B4F5805F02D127252846C9
:10B3E000EDE7B4F5006F13D10120FFF765FE0546C8
:10B3F000F5B90020104908750860486088604FF46E
:10B400000060C860002008610846FFF767FF0FE092
:10B410000020FFF751FE054655B900200649087582
:10B42000086048608860C86008610846FFF756FFFA
:10B430002846C4E734050020D0C90020F0B50146F5
:10B4400000200022C04B1B7881F85630BF4B1B8870
:10B45000A1F85430BE4B1B681A0E93090B70C2F34F
:10B4600083034B7002F003038B70B94B1B68C3F36B
:10B470000742CA70B64B1B88C3F307220A71B44B4C
:10B480001A784A715B681A0E1301CB80B04B5B6867
:10B49000C3F30742CB8843EA1213CB8002F00F03B9
:10B4A0000B72AB4B9B88C3F30722D3094B72C2F3D9
:10B4B00080138B72C2F34013CB72C2F300130B7371
:10B4C00000234B73A04B1B681BB19F4B1B68012BC8
:10B4D0004FD193071B0D0B619D4B1A790B6943EA02
:10B4E00082030B619A4B9B681A0E0B6943EA921315
:10B4F0000B61C2F3C2030B7502F007034B75944B4B
:10B500009B68C3F3074253098B75C2F38203CB7563
:10B5100093075B0F0B768E4B1B89C3F307220B7EC1
:10B5200043EAD2130B760B695B1C0024C1E9123489
:10B530000B7ED1E912649B1C012505FA03F3DD178C
:10B54000A6FB037C04FB03C306FB0533C1E91273AE
:10B550000C7A0123A3400B650027D1E912560B6D2D
:10B56000A5FB034C06FB03C305FB0733C1E91243EC
:10B5700036E0754B1B68022B32D1754B1A79930656
:10B580009B0A0B61724B9B681A0E0B6943EA0223FC
:10B590000B616F4B9B68C3F307420B6913430B614D
:10B5A0006B4B1B89C3F307220B6900245B1C6441AE
:10B5B0004FF400770026A3FB075C04FB07C403FBE2
:10B5C00006474FF4806600242B463D46A3FB067CCD
:10B5D00005FB06C503FB0453C1E9127373100B6529
:10B5E000C2F3801301F8193F93065B0E4B70584B62
:10B5F0001A7A4B7843EAD2134B7002F07F038B70B8
:10B60000534BDB681A0ED309CB70C2F341130B7195
:10B61000C2F382034B7193071B0F8B714C4BDB689A
:10B62000C3F307428B7943EA92138B71C2F3401341
:10B63000CB7100230B7202F001034B72444B9B89C8
:10B64000C3F30722D3098B72C2F38013CB72C2F308
:10B6500040130B73C2F300134B73C2F381038B735C
:10B6600002F00303CB733A4B1A7B53080B7401238C
:10B670004B74384B1B681A0ECA741939354B1B684A
:10B68000C3F307421402CC85324B1B88C3F3072255
:10B69000CB8D1343CB852F4B1A7814060C635B6854
:10B6A0001A0E0B6B43EA02440C632A4B5B68C3F32C
:10B6B00007420B6B43EA02240C63264B9B88C3F3BF
:10B6C00007220B6B13430B63224B1A7934235A5412
:10B6D000204B9B681A0E35235A541E4B9B68C3F3AC
:10B6E000074214068C631B4B1B89C3F307228B6B29
:10B6F00043EA02448C63174B1A7A8B6B43EA0224A9
:10B700008C63144BDB681A0E8B6B13438B63114BEA
:10B71000DB68C3F307423C235B5C43EA12143C231F
:10B720005C5413071C0DCC870A4B9B89C3F307227B
:10B73000CB8F1343CB87074B1A7B540840235C54B1
:10B74000012441235C54F0BD34050020380500205D
:10B7500048C9002058C9002008B500200090FFF714
:10B7600015FE012809D1684600F030FC08B1FF2021
:10B7700008BD0098C0F34320FAE7FF20F8E710B5B2
:10B780000424FFF7E9FF0446042C01D1002010BD7A
:10B79000FF2C01D10220FAE70120F8E708B50020CC
:10B7A0000090FFF7B3FD00F069F9FFF745FD00F0E9
:10B7B000C3F900909DF8000010B19DF8000008BD8D
:10B7C00000F032F800909DF8000010B19DF80000E4
:10B7D000F5E7002012490875086048608860C86075
:10B7E00008610846FFF77AFD0E48FFF727FE009034
:10B7F0009DF8000040B90B48B0F854000204104610
:10B80000002100F0C7FB00909DF8000020B94FF424
:10B810000060FFF7CBFD00909DF80000CFE700002F
:10B82000D0C9002078C9002038B50024012000903C
:10B83000FFF72CFD10B92524204638BD4448006888
:10B84000042828D000204349086002204860C02016
:10B8500088600020C8604FF4806008610846FFF7E8
:10B8600079FDFDF7ABFA04460CB12046E5E7002070
:10B87000FFF714FD384908600420FFF70FFD364933
:10B8800048600820FFF70AFD334988600C20FFF765
:10B8900005FD3149C8602E48006858B12C48006841
:10B8A000012807D02A480068062803D028480068E5
:10B8B000022816D100202749086003204860402054
:10B8C00088600020C8604FF4806008610846FFF778
:10B8D00041FD69460320FDF7B3FA04460CB120464A
:10B8E000ABE71B48006804282ED0BDF800001B49B8
:10B8F0000860BDF80000000416490860092048608F
:10B90000C02088600020C8604FF48060086108464D
:10B91000FFF720FDFDF752FA04460CB120468CE7F4
:10B920000020FFF7BBFC0E4908600420FFF7B6FCBF
:10B930000B4948600820FFF7B1FC094988600C20DA
:10B94000FFF7ACFC0649C8600024204675E70000FC
:10B9500034050020E8C9002058C90020380500201F
:10B9600048C9002030B58FB005460C464FF0FA515B
:10B970001D48FDF7D3FF00211B48FDF7E9FF1A48DA
:10B98000FDF7F2FF4FF0006000901848019002951B
:10B9900000200390049405904FF48060069080008E
:10B9A00007900020089009904FF440300A9004203E
:10B9B0000B9003200C904FF400000D9080100E901F
:10B9C00069460948FEF7A4F8012210210648FEF74F
:10B9D00082F820210448FEF773F801210248FDF7A0
:10B9E000B7FF0FB030BD000058640240802C01400A
:10B9F00030B58FB005460C464FF0FA511D48FDF7A3
:10BA00008DFF00211B48FDF7A3FF1A48FDF7ACFF8F
:10BA10004FF000600090184801900295402003907C
:10BA20000494002005904FF48060069080000790F9
:10BA30000020089009904FF440300A9004200B90A9
:10BA400003200C904FF400000D9080100E9069467A
:10BA50000848FEF75DF8012210210648FEF73BF882
:10BA600020210448FEF72CF801210248FDF770FF61
:10BA70000FB030BD58640240802C01401CB501213C
:10BA80000C20FEF757FE0C2208212948FEF7C4F9C6
:10BA90000C2209212648FEF7BFF90C220A2124486E
:10BAA000FEF7BAF90C220B212148FEF7B5F90C225A
:10BAB00011461F48FEF7B0F90C2202211D48FEF77F
:10BAC000ABF94FF47060009002208DF805008DF8FE
:10BAD000040000208DF8060001208DF8070069465B
:10BAE0001348FEF751F90420009069461148FEF70B
:10BAF0004BF94FF48050009000208DF80700694604
:10BB00000B48FEF741F98020009000208DF80400DA
:10BB100001208DF8070069460548FEF735F9012137
:10BB2000C802FEF737FE01218805FEF703FE1CBDA3
:10BB300000080240000C0240F8B5002000900025EB
:10BB400000240026002776205F4908750020086041
:10BB500048608860C86008610846FFF7BFFB0320A3
:10BB6000FFF70EFC0120FFF741FB0020574908605A
:10BB700048608860C8604FF4806008610846FFF73D
:10BB8000E9FBFDF76BF800909DF8000010B19DF8FF
:10BB90000000F8BD4FF4D5704C490860082048609B
:10BBA000402088600020C8604FF48060086108462B
:10BBB000FFF7D0FBFDF792F900909DF8000020B947
:10BBC000012043490860870712E000203F490860D0
:10BBD00037204860402088600020C8604FF48060B3
:10BBE00008610846FFF7B6FB3720FDF74DF80090D7
:10BBF00000203649086037204860402088600020D7
:10BC0000C8604FF4806008610846FFF7A3FB372047
:10BC1000FDF73AF800909DF80000002851D13BE074
:10BC200000202A49086037204860402088600020B2
:10BC3000C8604FF4806008610846FFF78BFB37202F
:10BC4000FDF722F800909DF8000010B19DF800006B
:10BC50009FE7204838431D4908602920486040205C
:10BC600088600020C8604FF4806008610846FFF7D4
:10BC700071FBFDF7C9F800909DF8000010B19DF828
:10BC8000000086E70020FFF709FB0546012080EA57
:10BC9000D57080F00106641C1EB94FF6FF70844217
:10BCA000BED34FF6FF70844204D31B2000909DF852
:10BCB00000006EE705F08040051E02D00220044916
:10BCC00008609DF8000064E7D0C90020E8C90020A2
:10BCD000340500200000108010B50748006800F00F
:10BCE000C05040B10120054908604FF0C2510248E0
:10BCF0005830FDF713FE10BD0064024048050020D7
:10BD000010B54FF48070FFF7B5FA50B10020254907
:10BD100008704FF48070FFF763FA01202249086031
:10BD200037E00220FFF7A6FA30B10220FFF758FAF9
:10BD300002201C4908702CE00820FFF79BFA30B164
:10BD40000820FFF74DFA04201649087021E0202052
:10BD5000FFF790FA30B12020FFF742FA0620114990
:10BD6000087016E01020FFF785FA30B11020FFF7B9
:10BD700037FA05200B4908700BE04FF40070FFF70D
:10BD800079FA30B14FF40070FFF72AFA072005491D
:10BD9000087000214CF23A30FFF790FA0148007821
:10BDA00010BD000040050020440500202DE9F041B1
:10BDB000804614461D46069E002700203049087024
:10BDC000304908603049086030490860012140F27C
:10BDD0002A30FFF773FA0120FFF70EFA314640468A
:10BDE000FFF7C0FD2A480068022808D106020202B7
:10BDF000002320462946FCF7EBF904460D4625486A
:10BE00000660102023494860402088600020C860F8
:10BE10004FF4806008610846FFF79CFA1020FCF799
:10BE200033FF074617B13846BDE8F0814FF0FF30C9
:10BE30001949086008464660902088600220C86062
:10BE400000200861012048610846FFF7DBF911482E
:10BE5000046011200F494860402088600020C860BD
:10BE60004FF4806008610846FFF774FA1120FCF770
:10BE70000BFF07460FB13846D6E73846D4E7000037
:10BE800040050020440500203C0500202C2C0140EA
:10BE900034050020E8C90020FCC900202DE9F04746
:10BEA000814614461D46DDE9086800270020324916
:10BEB000087032490860012031490860002031498A
:10BEC0000860012140F22A30FFF7F8F908FB06F17B
:10BED0004846FFF747FD0120FFF78EF92A48006822
:10BEE000022808D106020202002320462946FCF758
:10BEF0006FF904460D462548066010202349486026
:10BF0000402088600020C8604FF4806008610846C7
:10BF1000FFF720FA1020FCF7B7FE074617B13846A6
:10BF2000BDE8F0874FF0FF301949086008FB06F0C4
:10BF30004860902088600220C860002008610120CD
:10BF400048610846FFF75EF91048046012200F4967
:10BF50004860402088600020C8604FF4806008611D
:10BF60000846FFF7F7F91220FCF78EFE07460FB1DF
:10BF70003846D5E73846D3E7400500204405002081
:10BF80003C0500202C2C014034050020E8C900208D
:10BF9000FCC9002070B504460D4600260A4804601E
:10BFA000072009494860402088600020C8604FF49D
:10BFB000806008610846FFF7CDF90720FCF764FEB2
:10BFC0000646304670BD0000E8C9002070B5044642
:10BFD000002514B92625284670BD0F4800880004A6
:10BFE0000E4908600D204860402088600020C8602D
:10BFF0004FF4806008610846FFF7ACF90D20FCF7AC
:10C0000043FE05460DB12846E6E70020FFF746F956
:10C0100020602846E0E7000038050020E8C900203D
:10C0200010B5002400200A4908600C204860402018
:10C0300088600020C8604FF4806008610846FFF700
:10C0400089F90C20FCF720FE0446204610BD0000B4
:10C05000E8C9002070B500256C1E00E0641E184879
:10C06000006838B91748006820B91748007808B93F
:10C07000002CF3D1002012490860441E00E0641E29
:10C080001248006800F4005008B1002CF7D11048A5
:10C090000068012805D1FFF7C3FF054600200C49C1
:10C0A00008600CB905B9042540F2FF50FFF792F87B
:10C0B0000548007810B10448007870BD2846FCE7B8
:10C0C000480500204405002040050020342C014094
:10C0D0003C0500202DE9F041804614461D46069E91
:10C0E000002700202F4908702F4908602F49086059
:10C0F0002F490860012140F22A30FFF7DFF831466E
:10C100004046FFF775FC0120FFF776F829480068E4
:10C11000022808D106020202002320462946FCF725
:10C1200057F804460D46244806601020224948600E
:10C13000402088600020C8604FF480600861084695
:10C14000FFF708F91020FCF79FFD074617B13846A6
:10C15000BDE8F08118480460182017494860402065
:10C1600088600020C8604FF4806008610846FFF7CF
:10C17000F1F81820FCF788FD07460FB13846E7E7CD
:10C180004FF0FF300D4908600846466090208860F7
:10C190000020C8600861012048610846FFF732F8B6
:10C1A0003846D5E740050020440500203C05002026
:10C1B0002C2C014034050020E8C90020FCC90020D7
:10C1C0002DE9F047814615461E46DDE90878002432
:10C1D0000020494908704949086001204849086021
:10C1E000002048490860012140F22A30FFF766F834
:10C1F00008FB07F14846FFF7FBFB0120FEF7FCFFB9
:10C2000041480068022808D107020202002328469C
:10C210003146FBF7DDFF05460E463C48076010201F
:10C220003A494860402088600020C8604FF4806030
:10C2300008610846FFF78EF81020FCF725FD04463C
:10C2400014B12046BDE8F0873148008800042F492A
:10C25000086037204860402088600020C8604FF4A4
:10C26000806008610846FFF775F83720FCF70CFD81
:10C2700004460CB12046E5E72448C0F800801720AA
:10C2800022494860402088600020C8604FF48060E8
:10C2900008610846FFF75EF81720FCF7F5FC044636
:10C2A0000CB12046CEE719480560192017494860AF
:10C2B000402088600020C8604FF480600861084614
:10C2C000FFF748F81920FCF7DFFC04460CB12046C4
:10C2D000B8E74FF0FF300F49086008FB07F04860EF
:10C2E000902088600020C8600861012048610846ED
:10C2F000FEF788FF2046A5E7400500204405002002
:10C300003C0500202C2C014034050020E8C9002009
:10C3100038050020FCC9002021B1028842F040020B
:10C32000028004E002884FF6BF731A400280704713
:10C330000246002013890B400BB1012000E00020D1
:10C3400070470146888970478181704710B5034660
:10C350004BB94FF480501060044840691468B0FB3A
:10C36000F4F0086000BF00BF002010BD14CA002018
:10C370000020704710B5044614B903F087FC00BFD5
:10C3800000BF002010BD000070B5054609F0D0FACE
:10C390000446B5B90C48844201D1002070BD0B4859
:10C3A000844201D10020F9E7214609A002F00EFBEA
:10C3B0004FF4784200210DA005F0D8FC4FF0FF307B
:10C3C000ECE70020EAE700001660850018406800EE
:10C3D000666C617368204E6F20737570706F727435
:10C3E0003A30782578200D0A00000000666C6173F1
:10C3F00068204E6F20737570706F72743A307825B4
:10C4000078200A000146002070472DE9F0410446DB
:10C410000D4616461F462CB93A033103284609F04B
:10C420005BFA00BF00BF0020BDE8F0812DE9F041BC
:10C4300005460E4614461F466DB9FDF7BFFD2003A5
:10C4400009F07CF94FF6FF7000EA0732210330460D
:10C4500009F05CFB00BF00BF0020BDE8F081704721
:10C460000CB50020019000903448006840F4803002
:10C470003249086000BF3148006800F40030009085
:10C480000198401C0190009818B90198B0F5A04F90
:10C49000F1D12A48006800F4003010B1012000906A
:10C4A00001E0002000900098012846D12348403048
:10C4B000006840F080502149403108602048006801
:10C4C00040F440401E4908601C48083000681B4981
:10C4D000083108600846006840F4004008600846DB
:10C4E000006840F4A05008601648091F0860081F43
:10C4F000006840F08070091F086000BF0F480068A6
:10C5000000F000700028F9D040F205700E49086074
:10C510000A480830006820F0030008490831086024
:10C520000846006840F00200086000BF0348083079
:10C53000006800F00C000828F8D10CBD003802405B
:10C540000070004008544007003C024010B500F065
:10C5500001F810BD10B51F48006840B11D480068C3
:10C56000401E1C49086010B901201B4908700024B6
:10C5700008E004EB4401194A02EB810003F0C8FC17
:10C58000601CC4B2042CF4DB15480068401C14493C
:10C590000860144801684068491C40F10000114AD5
:10C5A000116050600E4800686FF00041884202D16F
:10C5B00000200B49086003F093FC0B480078401CF6
:10C5C000C0B2094908700A2803DB0020087003F094
:10C5D00083FC10BD180500201C050020C894002015
:10C5E00020050020280500203005002010B5154842
:10C5F000006840F47000134908601348006840F078
:10C6000001001149086000200F49083108600E48F8
:10C6100000680E4908400C4908600D48091D086073
:10C62000081F006820F48020091F086000200649C8
:10C630000C310860FFF714FF4FF0006001498039AA
:10C64000086010BD88ED00E000380240FFFFF6FEF4
:10C650001030002410B50121064800F04AF840B11E
:10C6600005480068401C044908600121014800F0A9
:10C6700005F810BD000400408C050020CA4302826A
:10C68000704721B1028842F00102028004E0028872
:10C690004FF6FE731A40028070472DE9F0410546BF
:10C6A0000E4617469846002443463A4631462846E9
:10C6B00000F00EF82C894FF6F870044044F007049F
:10C6C0004FF68F70044044F070042C81BDE8F08177
:10C6D00030B50C4600210189C9B24FF6FF7505EA55
:10C6E0000325154325432943018130BD0146486A8E
:10C6F000704730B50246002000230024158A05EA61
:10C700000103958905EA010413B10CB1012000E091
:10C71000002030BD1AB183890B43838102E08389F5
:10C720008B4383817047C16270474162704700004C
:10C7300000220288184B98420ED0184B98420BD01A
:10C74000B0F1804F08D0164B984205D0154B984257
:10C7500002D0154B984204D14FF68F731A404B8884
:10C760001A43124B984207D0114B984204D04FF60F
:10C77000FF431A400B891A4302804B68C3620B883F
:10C780000385054B984202D0044B984201D18B7A25
:10C7900003860123838270470000014000040140AA
:10C7A0000004004000080040000C00400010004061
:10C7B0000014004010B5024802F004F810BD00005B
:10C7C000F894002010B5024801F0FCFF10BD0000F5
:10C7D00020A9002001F40072B2F5007F00D100BF53
:10C7E000CA430280704721B1828942F4005282819B
:10C7F00004E082894DF6FF731A4082817047024639
:10C800000020B1F5007F00D100BF13880B400BB1B1
:10C81000012000E00020704770B50246002400238C
:10C820000025002040F66A16B14200D100BFC1F3D6
:10C83000421501F01F03012606FA03F3012D02D170
:10C840009689334006E0022D02D1168A334001E07A
:10C85000968A33400C12012606FA04F416883440F6
:10C8600013B10CB1012000E0002070BDF0B503460B
:10C87000002400260025002040F66A17B94200D1A6
:10C8800000BF1846C1F3421401F01F06012707FA42
:10C8900006F5012C01D10C3004E0022C01D110303E
:10C8A00000E014301AB107682F43076002E0076800
:10C8B000AF430760F0BD00002DE9FF4705460E4677
:10C8C0000024A14600BFA046B08900B100BF2C8A59
:10C8D00024F44054F08804432C82AC8941F20C606B
:10C8E0008443B08831890843718908430443AC818B
:10C8F000AC8A24F44074B0890443AC826846FDF7E6
:10C9000069FF2048854202D01F48854202D1DDF8E8
:10C910000C9001E0DDF80890A88900F4004040B1D7
:10C9200009EBC90000EB091031684900B0FBF1F7D1
:10C9300007E009EBC90000EB091031688900B0FB82
:10C94000F1F76420B7FBF0F004012009642101FB3A
:10C950001078A88900F4004040B1322000EBC800F4
:10C96000B0FBF1F000F00700044308E0322000EBD8
:10C9700008106421B0FBF1F000F00F0004432C819B
:10C98000BDE8FF870010014000140140014688887F
:10C99000C0F308007047C1F308028280704770B589
:10C9A00004460D46D4F8E4052946426820469047DF
:10C9B000002070BD70B504460D464FF48970005DCF
:10C9C000022802D0032812D100E000BF68880128A5
:10C9D0000CD100214FF48C700151D4F8E4052946A4
:10C9E000826820469047204600F05EF804E0294621
:10C9F000204600F021F800BF00BF70BD2DE9F041D6
:10CA000006460C46154600272B4622460021304696
:10CA1000FCF75AFB3846BDE8F0812DE9F0410646A7
:10CA20000C46154600272B46224600213046FCF7CF
:10CA3000A6FB3846BDE8F08170B504460D4680215E
:10CA40002046FCF778FB00212046FCF774FB2046CB
:10CA500001F0ADFA70BD70B504460025052140F225
:10CA60001110015500231A4619462046FCF72CFBED
:10CA7000204601F09CFA284670BD2DE9F04104469D
:10CA80000E4615460027C4F83C51C4F8385102211F
:10CA900040F2111001552B46324600212046FCF78A
:10CAA0006EFB3846BDE8F08170B5044600250421D0
:10CAB00040F21110015500231A4619462046FCF792
:10CAC0005EFB204601F073FA284670BD70B505463E
:10CAD0000E46002E51D105F58E7440F21110405DC6
:10CAE00002283DD1A168E069884211D9A168E069B6
:10CAF000401AE061E878012803D1D4E90210084423
:10CB0000E060A08B82B22846E168FFF786FF27E04D
:10CB1000A168206AB0FBF1F201FB120078B9A168AC
:10CB2000206A88420BD3D4E90801884207D2002248
:10CB300011462846FFF771FF0020606210E0D5F82B
:10CB4000E405C06848B14FF48970405D032804D102
:10CB5000D5F8E405C168284688472846FFF77BFFDB
:10CB60004FF48B70405D012816D1284600F046FB3B
:10CB700000214FF48B7041550EE0D5F8E405406973
:10CB800050B14FF48970405D032805D1D5F8E40514
:10CB90003146426928469047002070BD70B5054671
:10CBA0000E46A6BB05F55D7440F21110405D0328EA
:10CBB0003DD1A168E069884217D9A168E069401AAF
:10CBC000E061E878012803D1D4E902100844E0606C
:10CBD000A368E069984201D2E06900E0A06882B2EF
:10CBE0002846E168FFF70AFF21E0D5F8E40500696F
:10CBF00048B14FF48970405D032804D1D5F8E405AD
:10CC00000169284688472846FFF74EFF0FE0FFE7F7
:10CC1000D5F8E405806950B14FF48970405D032870
:10CC200005D1D5F8E40531468269284690470020B1
:10CC300070BD01460020704770B504460D46E88877
:10CC4000012804D029462046FFF7F6FE1AE04FF4EB
:10CC50008970005D022802D003280DD105E0012271
:10CC600009492046FFF709FF0BE0012204F588710E
:10CC70002046FFF702FF04E029462046FFF7DCFECE
:10CC800000BF00BF70BD0000F8050020F8B50446E5
:10CC90000E467088001208286CD2DFE800F06B04A2
:10CCA00016226B6B6166A078D4F8EC150A686946A9
:10CCB00090470546F088402804D04FF48970005D05
:10CCC000012801D10820009059E0A078D4F8E4159B
:10CCD0008A6A69469047054602216970C4F8F05592
:10CCE0004DE0B078062834D2DFE800F0030B131BC8
:10CCF000232BA078D4F8EC154A686946904705467E
:10CD00002CE0A078D4F8EC158A686946904705466F
:10CD100024E0A078D4F8EC15CA6869469047054627
:10CD20001CE0A078D4F8EC150A69694690470546DE
:10CD300014E0A078D4F8EC154A6969469047054696
:10CD40000CE0A078D4F8EC158A696946904705464E
:10CD500004E031462046FFF76FFEF8BD00BF0EE04D
:10CD600031462046FFF768FEF7E731462046FFF7D9
:10CD700063FEF2E731462046FFF75EFEEDE700BFB7
:10CD8000BDF8000088B1F08878B1F088BDF80010D7
:10CD9000884202DDBDF8000000E0F0880090BDF898
:10CDA000002029462046FFF768FE00BFD5E7014670
:10CDB000002002E0421CD0B2491C0A78002AF9D1B6
:10CDC0007047024601EB810302F55D7000EBC30082
:10CDD000008B80B27047000070B504460D464FF4DA
:10CDE0008970005D022802D0032813D100E000BF43
:10CDF00001200C4908604FF48C70005920B108469E
:10CE0000006840F002000860022206492046FFF751
:10CE100034FE04E029462046FFF70EFE00BF00BFA7
:10CE200070BD0000FC0500202DE9F04104460D46D0
:10CE300017460026FCB12046FFF7B9FF022101EB9F
:10CE4000400038803A783046711CCEB22A54032212
:10CE50003046711CCEB22A540AE014F8012B304639
:10CE6000711CCEB22A5400223046711CCEB22A5414
:10CE700020780028F1D1BDE8F0812DE9F041044689
:10CE80000F4615461E46DDF81880204600F08CFD42
:10CE90002046FFF7CEFEC4F8E465C4F8E885C4F880
:10CEA000EC5539462046FCF75FFCD4F8E8150868D5
:10CEB0008047204600F062FDBDE8F08110B50446D1
:10CEC000D4F8E405016A20468847002010BD10B55B
:10CED0000446D4F8E405416A20468847002010BD86
:10CEE00070B504460D4629462046FDF7CDF90020D1
:10CEF00070BD70B504460D4629462046FDF7ECF995
:10CF0000002070BD70B504460D4681212046FCF717
:10CF10004CF801212046FCF748F82046FDF7FEF9C1
:10CF2000002070BD024620200880014870470000A4
:10CF30003406002070B504460D4629462046FFF70A
:10CF4000E1FF0223402281212046FCF789F80223D9
:10CF5000402201212046FCF783F82046FDF7E4F942
:10CF6000002070BD70B505460C46207800F06000CA
:10CF7000002849D020287BD16078FE2802D0FF28E5
:10CF80003AD125E06088E0B9E088012819D12078FD
:10CF900000F08000802814D13749096888698047EB
:10CFA0003649087008460078002804DD012228462A
:10CFB000FFF763FD0BE021462846FFF73DFD022009
:10CFC00070BD21462846FFF737FD0220F8E719E03B
:10CFD000608850B9E08840B9207800F0800080284F
:10CFE00003D02846FDF7C4F905E021462846FFF79F
:10CFF00023FD0220E4E705E021462846FFF71CFD5B
:10D000000220DDE700BF34E0607801280ED00A2856
:10D0100002D00B2829D105E0012219492846FFF743
:10D020002CFD22E0A078164908701EE021792846E0
:10D03000FCF704F821792846FBF7B7FF207900F0C8
:10D040008000802806D12179022340222846FCF75F
:10D0500007F805E02179022340222846FCF700F872
:10D0600021792846FDF7F2F800BF00BF01E0FFE795
:10D0700000BF00BF0020A3E7E80600205406002000
:10D08000550600207CB505460024284601F084FAA8
:10D09000002865D0284601F08AFA0190019808B965
:10D0A00000207CBD0198C0F3C04018B12846FCF7B1
:10D0B00063F904430198C0F3804018B12846FCF797
:10D0C000B9F804430198C0F3400050B1002000902B
:10D0D000009820F00200801C00900098E9684861E8
:10D0E00000BF0198C00F18B12846FCF7C5F90443EA
:10D0F0000198C0F3C02018B12846FCF75FFA04433A
:10D100000198C0F3C00018B12846FCF741FA044367
:10D110000198C0F3001018B12846FCF7E1F9044368
:10D120000198C0F3003018B12846FCF79BFA04437D
:10D130000198C0F3403018B12846FCF747F8044383
:10D140000198C0F3005018B12846FCF75BFB04437C
:10D150000198C0F3405018B12846FCF769FB04431E
:10D1600020469EE790F8CC250A7090F8CD254A70AD
:10D1700090F8CE3590F8CF2503EB02224A8090F844
:10D18000D03590F8D12503EB02228A8090F8D23571
:10D1900090F8D32503EB0222CA80CB884FF4A0720B
:10D1A0001350012340F211121354704710B5044676
:10D1B0000023402219462046FBF752FF002340225D
:10D1C00080212046FBF74CFF01214FF48970015567
:10D1D000A078D4F8E82551688847002010BD10B524
:10D1E0000446D4F8E8150869804740F21310015D41
:10D1F000401E015503210155002010BD0146034882
:10D20000026808694260002070470000C0050020E5
:10D2100010B50446D4F8E405C06920B1D4F8E4059B
:10D22000C16920468847002010BD70B504460D46F0
:10D23000A88818BBE88808BBA87800F07F064FF4E0
:10D240008970005D032804D129462046FFF7F4FBCE
:10D2500018E04FF48A70065531462046FBF75DFF13
:10D260002046FFF721FC26B102214FF489700155B9
:10D2700008E001214FF48970015503E0294620465A
:10D28000FFF7DAFB70BD70B504460D46D4F8E4052F
:10D290002946026820469047D4F8E81588688047F8
:10D2A000002070BD70B504460D46A878304908705E
:10D2B00008460078012804DD29462046FFF7BCFB1C
:10D2C00055E04FF48970005D022802D0032848D150
:10D2D00017E02748007880B12548007884F81001CD
:10D2E00003214FF489700155214801782046FFF74A
:10D2F000CAFF2046FFF7D8FB02E02046FFF7D4FB29
:10D3000034E01B48007880B902214FF48970015540
:10D310001748007884F81001154801782046FFF777
:10D320003EFB2046FFF7C0FB1AE094F810011049BD
:10D330000978884211D094F810112046FFF72FFB8E
:10D340000B48007884F81001094801782046FFF75F
:10D350009AFF2046FFF7A8FB02E02046FFF7A4FB58
:10D3600004E029462046FFF767FB00BF00BF70BD01
:10D3700000060020F8B504460D46002668880128FE
:10D380000DD101214FF48C700151D4F8E4052946E8
:10D390008268204690472046FFF786FB39E0688880
:10D3A000022836D12879A0BB206940680090A8885F
:10D3B0000612062E22D2DFE806F02103090F151B04
:10D3C000009820F070001030009017E0009820F0D6
:10D3D00070002030009011E0009820F07000303094
:10D3E00000900BE0009820F070004030009005E0C5
:10D3F000009820F070005030009000BF00BF05483A
:10D400000099016001214FF48B7001552046FFF710
:10D410004BFBF8BDC00500201CB5044669462046FC
:10D42000FFF7A0FE9DF8000000F01F0020B10128CA
:10D4300007D002280FD109E06946204600F016F80F
:10D4400011E06946204600F0F9F80CE069462046F4
:10D4500000F046F807E09DF8000000F0800120464B
:10D46000FBF769FE00BF00BF00201CBD70B505467C
:10D470000C46002660780A2829D2DFE800F019233C
:10D48000281E280A0528140F21462846FFF7FEFB10
:10D4900022E021462846FFF7C8FE1DE02146284627
:10D4A000FFF700FF18E021462846FFF7C5FB13E011
:10D4B00021462846FFF790FC0EE021462846FFF75C
:10D4C00059FF09E021462846FFF774FA04E0214697
:10D4D0002846FFF7B1FA00BF00BF304670BD00001C
:10D4E0002DE9F04105460E46002734797078002872
:10D4F00057D001282BD0032875D14FF48970405D97
:10D50000022802D003281BD107E02CB1802C03D0C5
:10D5100021462846FBF70FFE17E0708830B92CB182
:10D52000802C03D021462846FBF705FED5F8E405FC
:10D5300031468268284690472846FFF7B5FA04E04E
:10D5400031462846FFF778FA00BF00BF70E04FF47D
:10D550008970405D022802D003281BD107E02CB15E
:10D56000802C03D021462846FBF7E5FD17E07088A4
:10D5700078B95CB1802C09D021462846FBF73AFDEA
:10D58000D5F8E40531468268284690472846FFF7DB
:10D590008BFA04E031462846FFF74EFA00BF00BF81
:10D5A00046E04FF48970405D022802D0032837D14D
:10D5B00007E02CB1802C03D021462846FBF7BBFDA9
:10D5C00033E004F08000802812D104F07F0000EBEB
:10D5D000800105F58E7000EBC100807820B101203C
:10D5E0001549086016E022E000201349086011E0A8
:10D5F00004F0800070B904EB840105F55D7000EB68
:10D60000C100807818B101200B49086002E00020B9
:10D6100009490860022208492846FFF72EFA04E06B
:10D6200031462846FFF708FA00BF00BF00E000BF00
:10D6300000BF3846BDE8F081F405002070B504460F
:10D640000D4600264FF48970005D032814D1287917
:10D6500001280CDCD4F8E40529468268204690476E
:10D66000E88840B93EB92046FFF71EFA03E0294694
:10D670002046FFF7E1F904E029462046FFF7DCF9F0
:10D6800000BF00BF304670BD10B504464FF489702E
:10D69000015D401C01550421401E0155D4F8E815D8
:10D6A000C8688047002010BD70B505460C462DB9EE
:10D6B0002246064906A0FFF7B7FB04E022460349CD
:10D6C00003A0FFF7B1FB014870BD00004ECC002065
:10D6D0004D534320436F6E666967000010B502A08A
:10D6E00001F074F910BD00003E204D534320496EF7
:10D6F0007465726661636520737461727465642E0B
:10D700000D0A000010B502A001F060F910BD000084
:10D710003E205553422044657669636520436F6E11
:10D720006E65637465642E0D0A00000002461220C7
:10D730000880014870470000A806002010B502A02C
:10D7400001F044F910BD00003E20555342204465CD
:10D750007669636520446973636F6E6E6563746593
:10D76000642E0D0A0000000010B5044614B1012C0F
:10D7700008D103E006A001F029F907E00DA001F0AF
:10D7800025F903E014A001F021F900BF00BF10BD8E
:10D790002020202020555342445F5553525F44655A
:10D7A00076696365526573657420205B48535D0D2F
:10D7B0000A0000002020202020555342445F55538A
:10D7C000525F4465766963655265736574205B4694
:10D7D000535D0D0A000000002020202020555342F8
:10D7E00020446576696365204C69627261727920B4
:10D7F00076312E312E3020205B3F3F5D0D0A000038
:10D8000010B502A001F0E2F810BD00003E20446512
:10D810007669636520526573756D65642E0D0A0027
:10D8200010B502A001F0D2F810BD00003E20446502
:10D830007669636520496E2073757370656E642028
:10D840006D6F64652E0D0A0010B502A001F0BEF8E0
:10D8500010BD00003E20555342445F5553525F496E
:10D860006E6974200D0A000070B505460C462DB98E
:10D870002246064906A0FFF7D7FA04E022460349EC
:10D8800003A0FFF7D1FA014870BD00004ECC002084
:10D890004D534320496E74657266616365000000F4
:10D8A000024604200880014870470000C40600209A
:10D8B00070B505460C462246024903A0FFF7B4FAAC
:10D8C000004870BD4ECC002053544D6963726F65A3
:10D8D0006C656374726F6E696373000070B50546A2
:10D8E0000C462DB92246064906A0FFF79DFA04E032
:10D8F0002246034909A0FFF797FA014870BD0000CE
:10D900004ECC00204D6173732053746F7261676554
:10D9100020696E204853204D6F6465004D6173731C
:10D920002053746F7261676520696E204653204DE5
:10D930006F64650070B505460C462DB92246064950
:10D9400006A0FFF771FA04E02246034907A0FFF79B
:10D950006BFA014870BD00004ECC002030303030F2
:10D960003030303030303141000000003030303065
:10D9700030303030303031420000000038B50446DD
:10D980004FF4C060FCF7FEFD43208DF8000001203D
:10D990008DF8010003208DF8020001208DF80300AE
:10D9A0006846FCF7B3FD38BD1CB5044601210846A6
:10D9B000FCF7C0FE4FF4C050009003208DF8050026
:10D9C00002208DF8040000208DF806008DF8070075
:10D9D00069460B48FCF7D8F90A220B210848FCF7E6
:10D9E0001BFA0A220C210648FCF716FA01218803CB
:10D9F000FCF7D0FE01218020FCF7ACFE1CBD00002E
:10DA00000000024010B504464FF47A7104FB01F0A7
:10DA100000F001F810BD0022C0EB0013D90000BFD8
:10DA2000531C1A468B4200D97047F9E73EB50446AD
:10DA300000250020029001900090207A01283DD11D
:10DA4000E068806B0190019820F480300190607A4A
:10DA500028B1019820F4801000F580100190019801
:10DA6000E168886300200290E068C0680290029834
:10DA700020F040000290029820F48000029002986A
:10DA800020F400300290029820F4002002900298C6
:10DA9000E168C860204600F061F9E078012843D1D0
:10DAA000009820F01E000A300090009820F020001E
:10DAB000203000900098E168886035E0E068C06838
:10DAC0000290029820F04000403002900298E168F5
:10DAD000C860204600F042F900200190019820F42F
